{
  "_format": "hh-sol-artifact-1",
  "contractName": "Sales",
  "sourceName": "contracts/Sales.sol",
  "abi": [
    {
      "anonymous": false,
      "inputs": [
        {
          "indexed": true,
          "internalType": "address",
          "name": "previousOwner",
          "type": "address"
        },
        {
          "indexed": true,
          "internalType": "address",
          "name": "newOwner",
          "type": "address"
        }
      ],
      "name": "OwnershipTransferred",
      "type": "event"
    },
    {
      "inputs": [],
      "name": "getSales",
      "outputs": [
        {
          "components": [
            {
              "internalType": "uint256",
              "name": "saleId",
              "type": "uint256"
            },
            {
              "internalType": "uint256",
              "name": "userId",
              "type": "uint256"
            },
            {
              "internalType": "string[]",
              "name": "items",
              "type": "string[]"
            },
            {
              "internalType": "uint256[]",
              "name": "prices",
              "type": "uint256[]"
            }
          ],
          "internalType": "struct Sales.SaleStruct[]",
          "name": "",
          "type": "tuple[]"
        }
      ],
      "stateMutability": "view",
      "type": "function"
    },
    {
      "inputs": [
        {
          "internalType": "uint256",
          "name": "saleId",
          "type": "uint256"
        }
      ],
      "name": "getSalesById",
      "outputs": [
        {
          "components": [
            {
              "internalType": "uint256",
              "name": "saleId",
              "type": "uint256"
            },
            {
              "internalType": "uint256",
              "name": "userId",
              "type": "uint256"
            },
            {
              "internalType": "string[]",
              "name": "items",
              "type": "string[]"
            },
            {
              "internalType": "uint256[]",
              "name": "prices",
              "type": "uint256[]"
            }
          ],
          "internalType": "struct Sales.SaleStruct",
          "name": "",
          "type": "tuple"
        }
      ],
      "stateMutability": "view",
      "type": "function"
    },
    {
      "inputs": [
        {
          "internalType": "uint256",
          "name": "userId",
          "type": "uint256"
        }
      ],
      "name": "getSalesByUserId",
      "outputs": [
        {
          "components": [
            {
              "internalType": "uint256",
              "name": "saleId",
              "type": "uint256"
            },
            {
              "internalType": "uint256",
              "name": "userId",
              "type": "uint256"
            },
            {
              "internalType": "string[]",
              "name": "items",
              "type": "string[]"
            },
            {
              "internalType": "uint256[]",
              "name": "prices",
              "type": "uint256[]"
            }
          ],
          "internalType": "struct Sales.SaleStruct[]",
          "name": "",
          "type": "tuple[]"
        }
      ],
      "stateMutability": "view",
      "type": "function"
    },
    {
      "inputs": [
        {
          "internalType": "uint256",
          "name": "userId",
          "type": "uint256"
        },
        {
          "internalType": "string[]",
          "name": "items",
          "type": "string[]"
        },
        {
          "internalType": "uint256[]",
          "name": "prices",
          "type": "uint256[]"
        }
      ],
      "name": "insertSale",
      "outputs": [
        {
          "internalType": "uint256",
          "name": "",
          "type": "uint256"
        }
      ],
      "stateMutability": "nonpayable",
      "type": "function"
    },
    {
      "inputs": [],
      "name": "owner",
      "outputs": [
        {
          "internalType": "address",
          "name": "",
          "type": "address"
        }
      ],
      "stateMutability": "view",
      "type": "function"
    },
    {
      "inputs": [],
      "name": "renounceOwnership",
      "outputs": [],
      "stateMutability": "nonpayable",
      "type": "function"
    },
    {
      "inputs": [
        {
          "internalType": "uint256",
          "name": "",
          "type": "uint256"
        }
      ],
      "name": "sales",
      "outputs": [
        {
          "internalType": "uint256",
          "name": "saleId",
          "type": "uint256"
        },
        {
          "internalType": "uint256",
          "name": "userId",
          "type": "uint256"
        }
      ],
      "stateMutability": "view",
      "type": "function"
    },
    {
      "inputs": [
        {
          "internalType": "address",
          "name": "newOwner",
          "type": "address"
        }
      ],
      "name": "transferOwnership",
      "outputs": [],
      "stateMutability": "nonpayable",
      "type": "function"
    }
  ],
  "bytecode": "0x608060405234801561001057600080fd5b5061002d61002261003260201b60201c565b61003a60201b60201c565b6100fe565b600033905090565b60008060009054906101000a900473ffffffffffffffffffffffffffffffffffffffff169050816000806101000a81548173ffffffffffffffffffffffffffffffffffffffff021916908373ffffffffffffffffffffffffffffffffffffffff1602179055508173ffffffffffffffffffffffffffffffffffffffff168173ffffffffffffffffffffffffffffffffffffffff167f8be0079c531659141344cd1fd0a4f28419497f9722a3daafe3b4186f6b6457e060405160405180910390a35050565b61194e8061010d6000396000f3fe608060405234801561001057600080fd5b50600436106100885760003560e01c8063b5f522f71161005b578063b5f522f714610103578063debdd29414610134578063f2fde38b14610164578063f8bd2a281461018057610088565b80630d83304c1461008d57806310117f2e146100ab578063715018a6146100db5780638da5cb5b146100e5575b600080fd5b6100956101b0565b6040516100a29190610f0d565b60405180910390f35b6100c560048036038101906100c09190610f6f565b6103cf565b6040516100d29190610f0d565b60405180910390f35b6100e36105fc565b005b6100ed610610565b6040516100fa9190610fdd565b60405180910390f35b61011d60048036038101906101189190610f6f565b610639565b60405161012b929190611007565b60405180910390f35b61014e60048036038101906101499190610f6f565b61065d565b60405161015b919061109a565b60405180910390f35b61017e600480360381019061017991906110e8565b6107cf565b005b61019a600480360381019061019591906113f3565b610852565b6040516101a7919061147e565b60405180910390f35b606060006101be600161090a565b67ffffffffffffffff8111156101d7576101d661111a565b5b60405190808252806020026020018201604052801561021057816020015b6101fd610a78565b8152602001906001900390816101f55790505b50905060005b610220600161090a565b8110156103c75760006002600060018461023a91906114c8565b8152602001908152602001600020905080604051806080016040529081600082015481526020016001820154815260200160028201805480602002602001604051908101604052809291908181526020016000905b8282101561033b5783829060005260206000200180546102ae9061152b565b80601f01602080910402602001604051908101604052809291908181526020018280546102da9061152b565b80156103275780601f106102fc57610100808354040283529160200191610327565b820191906000526020600020905b81548152906001019060200180831161030a57829003601f168201915b50505050508152602001906001019061028f565b5050505081526020016003820180548060200260200160405190810160405280929190818152602001828054801561039257602002820191906000526020600020905b81548152602001906001019080831161037e575b5050505050815250508383815181106103ae576103ad61155c565b5b6020026020010181905250508080600101915050610216565b508091505090565b606060006103dd600161090a565b67ffffffffffffffff8111156103f6576103f561111a565b5b60405190808252806020026020018201604052801561042f57816020015b61041c610a78565b8152602001906001900390816104145790505b50905060005b61043f600161090a565b8110156105f25760006002600060018461045991906114c8565b81526020019081526020016000209050848160010154036105e45780604051806080016040529081600082015481526020016001820154815260200160028201805480602002602001604051908101604052809291908181526020016000905b828210156105655783829060005260206000200180546104d89061152b565b80601f01602080910402602001604051908101604052809291908181526020018280546105049061152b565b80156105515780601f1061052657610100808354040283529160200191610551565b820191906000526020600020905b81548152906001019060200180831161053457829003601f168201915b5050505050815260200190600101906104b9565b505050508152602001600382018054806020026020016040519081016040528092919081815260200182805480156105bc57602002820191906000526020600020905b8154815260200190600101908083116105a8575b5050505050815250508383815181106105d8576105d761155c565b5b60200260200101819052505b508080600101915050610435565b5080915050919050565b610604610918565b61060e6000610996565b565b60008060009054906101000a900473ffffffffffffffffffffffffffffffffffffffff16905090565b60026020528060005260406000206000915090508060000154908060010154905082565b610665610a78565b60026000838152602001908152602001600020604051806080016040529081600082015481526020016001820154815260200160028201805480602002602001604051908101604052809291908181526020016000905b828210156107685783829060005260206000200180546106db9061152b565b80601f01602080910402602001604051908101604052809291908181526020018280546107079061152b565b80156107545780601f1061072957610100808354040283529160200191610754565b820191906000526020600020905b81548152906001019060200180831161073757829003601f168201915b5050505050815260200190600101906106bc565b505050508152602001600382018054806020026020016040519081016040528092919081815260200182805480156107bf57602002820191906000526020600020905b8154815260200190600101908083116107ab575b5050505050815250509050919050565b6107d7610918565b600073ffffffffffffffffffffffffffffffffffffffff168173ffffffffffffffffffffffffffffffffffffffff1603610846576040517f08c379a000000000000000000000000000000000000000000000000000000000815260040161083d9061160e565b60405180910390fd5b61084f81610996565b50565b600061085c610918565b6108666001610a5a565b6000610872600161090a565b9050600060405180608001604052808381526020018781526020018681526020018581525090508060026000848152602001908152602001600020600082015181600001556020820151816001015560408201518160020190805190602001906108dd929190610aa0565b5060608201518160030190805190602001906108fa929190610af9565b5090505081925050509392505050565b600081600001549050919050565b610920610a70565b73ffffffffffffffffffffffffffffffffffffffff1661093e610610565b73ffffffffffffffffffffffffffffffffffffffff1614610994576040517f08c379a000000000000000000000000000000000000000000000000000000000815260040161098b9061167a565b60405180910390fd5b565b60008060009054906101000a900473ffffffffffffffffffffffffffffffffffffffff169050816000806101000a81548173ffffffffffffffffffffffffffffffffffffffff021916908373ffffffffffffffffffffffffffffffffffffffff1602179055508173ffffffffffffffffffffffffffffffffffffffff168173ffffffffffffffffffffffffffffffffffffffff167f8be0079c531659141344cd1fd0a4f28419497f9722a3daafe3b4186f6b6457e060405160405180910390a35050565b6001816000016000828254019250508190555050565b600033905090565b6040518060800160405280600081526020016000815260200160608152602001606081525090565b828054828255906000526020600020908101928215610ae8579160200282015b82811115610ae7578251829081610ad79190611846565b5091602001919060010190610ac0565b5b509050610af59190610b46565b5090565b828054828255906000526020600020908101928215610b35579160200282015b82811115610b34578251825591602001919060010190610b19565b5b509050610b429190610b6a565b5090565b5b80821115610b665760008181610b5d9190610b87565b50600101610b47565b5090565b5b80821115610b83576000816000905550600101610b6b565b5090565b508054610b939061152b565b6000825580601f10610ba55750610bc4565b601f016020900490600052602060002090810190610bc39190610b6a565b5b50565b600081519050919050565b600082825260208201905092915050565b6000819050602082019050919050565b6000819050919050565b610c0681610bf3565b82525050565b600081519050919050565b600082825260208201905092915050565b6000819050602082019050919050565b600081519050919050565b600082825260208201905092915050565b60005b83811015610c72578082015181840152602081019050610c57565b60008484015250505050565b6000601f19601f8301169050919050565b6000610c9a82610c38565b610ca48185610c43565b9350610cb4818560208601610c54565b610cbd81610c7e565b840191505092915050565b6000610cd48383610c8f565b905092915050565b6000602082019050919050565b6000610cf482610c0c565b610cfe8185610c17565b935083602082028501610d1085610c28565b8060005b85811015610d4c5784840389528151610d2d8582610cc8565b9450610d3883610cdc565b925060208a01995050600181019050610d14565b50829750879550505050505092915050565b600081519050919050565b600082825260208201905092915050565b6000819050602082019050919050565b6000610d968383610bfd565b60208301905092915050565b6000602082019050919050565b6000610dba82610d5e565b610dc48185610d69565b9350610dcf83610d7a565b8060005b83811015610e00578151610de78882610d8a565b9750610df283610da2565b925050600181019050610dd3565b5085935050505092915050565b6000608083016000830151610e256000860182610bfd565b506020830151610e386020860182610bfd565b5060408301518482036040860152610e508282610ce9565b91505060608301518482036060860152610e6a8282610daf565b9150508091505092915050565b6000610e838383610e0d565b905092915050565b6000602082019050919050565b6000610ea382610bc7565b610ead8185610bd2565b935083602082028501610ebf85610be3565b8060005b85811015610efb5784840389528151610edc8582610e77565b9450610ee783610e8b565b925060208a01995050600181019050610ec3565b50829750879550505050505092915050565b60006020820190508181036000830152610f278184610e98565b905092915050565b6000604051905090565b600080fd5b600080fd5b610f4c81610bf3565b8114610f5757600080fd5b50565b600081359050610f6981610f43565b92915050565b600060208284031215610f8557610f84610f39565b5b6000610f9384828501610f5a565b91505092915050565b600073ffffffffffffffffffffffffffffffffffffffff82169050919050565b6000610fc782610f9c565b9050919050565b610fd781610fbc565b82525050565b6000602082019050610ff26000830184610fce565b92915050565b61100181610bf3565b82525050565b600060408201905061101c6000830185610ff8565b6110296020830184610ff8565b9392505050565b60006080830160008301516110486000860182610bfd565b50602083015161105b6020860182610bfd565b50604083015184820360408601526110738282610ce9565b9150506060830151848203606086015261108d8282610daf565b9150508091505092915050565b600060208201905081810360008301526110b48184611030565b905092915050565b6110c581610fbc565b81146110d057600080fd5b50565b6000813590506110e2816110bc565b92915050565b6000602082840312156110fe576110fd610f39565b5b600061110c848285016110d3565b91505092915050565b600080fd5b7f4e487b7100000000000000000000000000000000000000000000000000000000600052604160045260246000fd5b61115282610c7e565b810181811067ffffffffffffffff821117156111715761117061111a565b5b80604052505050565b6000611184610f2f565b90506111908282611149565b919050565b600067ffffffffffffffff8211156111b0576111af61111a565b5b602082029050602081019050919050565b600080fd5b600080fd5b600067ffffffffffffffff8211156111e6576111e561111a565b5b6111ef82610c7e565b9050602081019050919050565b82818337600083830152505050565b600061121e611219846111cb565b61117a565b90508281526020810184848401111561123a576112396111c6565b5b6112458482856111fc565b509392505050565b600082601f83011261126257611261611115565b5b813561127284826020860161120b565b91505092915050565b600061128e61128984611195565b61117a565b905080838252602082019050602084028301858111156112b1576112b06111c1565b5b835b818110156112f857803567ffffffffffffffff8111156112d6576112d5611115565b5b8086016112e3898261124d565b855260208501945050506020810190506112b3565b5050509392505050565b600082601f83011261131757611316611115565b5b813561132784826020860161127b565b91505092915050565b600067ffffffffffffffff82111561134b5761134a61111a565b5b602082029050602081019050919050565b600061136f61136a84611330565b61117a565b90508083825260208201905060208402830185811115611392576113916111c1565b5b835b818110156113bb57806113a78882610f5a565b845260208401935050602081019050611394565b5050509392505050565b600082601f8301126113da576113d9611115565b5b81356113ea84826020860161135c565b91505092915050565b60008060006060848603121561140c5761140b610f39565b5b600061141a86828701610f5a565b935050602084013567ffffffffffffffff81111561143b5761143a610f3e565b5b61144786828701611302565b925050604084013567ffffffffffffffff81111561146857611467610f3e565b5b611474868287016113c5565b9150509250925092565b60006020820190506114936000830184610ff8565b92915050565b7f4e487b7100000000000000000000000000000000000000000000000000000000600052601160045260246000fd5b60006114d382610bf3565b91506114de83610bf3565b92508282019050808211156114f6576114f5611499565b5b92915050565b7f4e487b7100000000000000000000000000000000000000000000000000000000600052602260045260246000fd5b6000600282049050600182168061154357607f821691505b602082108103611556576115556114fc565b5b50919050565b7f4e487b7100000000000000000000000000000000000000000000000000000000600052603260045260246000fd5b600082825260208201905092915050565b7f4f776e61626c653a206e6577206f776e657220697320746865207a65726f206160008201527f6464726573730000000000000000000000000000000000000000000000000000602082015250565b60006115f860268361158b565b91506116038261159c565b604082019050919050565b60006020820190508181036000830152611627816115eb565b9050919050565b7f4f776e61626c653a2063616c6c6572206973206e6f7420746865206f776e6572600082015250565b600061166460208361158b565b915061166f8261162e565b602082019050919050565b6000602082019050818103600083015261169381611657565b9050919050565b60008190508160005260206000209050919050565b60006020601f8301049050919050565b600082821b905092915050565b6000600883026116fc7fffffffffffffffffffffffffffffffffffffffffffffffffffffffffffffffff826116bf565b61170686836116bf565b95508019841693508086168417925050509392505050565b6000819050919050565b600061174361173e61173984610bf3565b61171e565b610bf3565b9050919050565b6000819050919050565b61175d83611728565b6117716117698261174a565b8484546116cc565b825550505050565b600090565b611786611779565b611791818484611754565b505050565b5b818110156117b5576117aa60008261177e565b600181019050611797565b5050565b601f8211156117fa576117cb8161169a565b6117d4846116af565b810160208510156117e3578190505b6117f76117ef856116af565b830182611796565b50505b505050565b600082821c905092915050565b600061181d600019846008026117ff565b1980831691505092915050565b6000611836838361180c565b9150826002028217905092915050565b61184f82610c38565b67ffffffffffffffff8111156118685761186761111a565b5b611872825461152b565b61187d8282856117b9565b600060209050601f8311600181146118b0576000841561189e578287015190505b6118a8858261182a565b865550611910565b601f1984166118be8661169a565b60005b828110156118e6578489015182556001820191506020850194506020810190506118c1565b8683101561190357848901516118ff601f89168261180c565b8355505b6001600288020188555050505b50505050505056fea26469706673582212204e2fe51daa0af1a0610bb81d20ae14a3742e6c472cc62e093c12490a52b2edab64736f6c634300081b0033",
  "linkReferences": {},
  "deployedLinkReferences": {}
}