{
  "_format": "hh-sol-artifact-1",
  "contractName": "Users",
  "sourceName": "contracts/Users.sol",
  "abi": [
    {
      "anonymous": false,
      "inputs": [
        {
          "indexed": true,
          "internalType": "address",
          "name": "previousOwner",
          "type": "address"
        },
        {
          "indexed": true,
          "internalType": "address",
          "name": "newOwner",
          "type": "address"
        }
      ],
      "name": "OwnershipTransferred",
      "type": "event"
    },
    {
      "inputs": [],
      "name": "getUser",
      "outputs": [
        {
          "components": [
            {
              "internalType": "string",
              "name": "firstName",
              "type": "string"
            },
            {
              "internalType": "string",
              "name": "lastName",
              "type": "string"
            },
            {
              "internalType": "uint256",
              "name": "amountSpent",
              "type": "uint256"
            },
            {
              "internalType": "uint256",
              "name": "userId",
              "type": "uint256"
            }
          ],
          "internalType": "struct Users.User[]",
          "name": "",
          "type": "tuple[]"
        }
      ],
      "stateMutability": "view",
      "type": "function"
    },
    {
      "inputs": [
        {
          "internalType": "uint256",
          "name": "userID",
          "type": "uint256"
        }
      ],
      "name": "getUserByID",
      "outputs": [
        {
          "components": [
            {
              "internalType": "string",
              "name": "firstName",
              "type": "string"
            },
            {
              "internalType": "string",
              "name": "lastName",
              "type": "string"
            },
            {
              "internalType": "uint256",
              "name": "amountSpent",
              "type": "uint256"
            },
            {
              "internalType": "uint256",
              "name": "userId",
              "type": "uint256"
            }
          ],
          "internalType": "struct Users.User",
          "name": "",
          "type": "tuple"
        }
      ],
      "stateMutability": "view",
      "type": "function"
    },
    {
      "inputs": [
        {
          "internalType": "string",
          "name": "firstName",
          "type": "string"
        },
        {
          "internalType": "string",
          "name": "lastName",
          "type": "string"
        }
      ],
      "name": "insertUser",
      "outputs": [
        {
          "internalType": "uint256",
          "name": "",
          "type": "uint256"
        }
      ],
      "stateMutability": "nonpayable",
      "type": "function"
    },
    {
      "inputs": [],
      "name": "owner",
      "outputs": [
        {
          "internalType": "address",
          "name": "",
          "type": "address"
        }
      ],
      "stateMutability": "view",
      "type": "function"
    },
    {
      "inputs": [
        {
          "internalType": "uint256",
          "name": "userID",
          "type": "uint256"
        },
        {
          "internalType": "uint256",
          "name": "amount",
          "type": "uint256"
        }
      ],
      "name": "registerSale",
      "outputs": [],
      "stateMutability": "nonpayable",
      "type": "function"
    },
    {
      "inputs": [],
      "name": "renounceOwnership",
      "outputs": [],
      "stateMutability": "nonpayable",
      "type": "function"
    },
    {
      "inputs": [
        {
          "internalType": "address",
          "name": "newOwner",
          "type": "address"
        }
      ],
      "name": "transferOwnership",
      "outputs": [],
      "stateMutability": "nonpayable",
      "type": "function"
    },
    {
      "inputs": [
        {
          "internalType": "uint256",
          "name": "",
          "type": "uint256"
        }
      ],
      "name": "users",
      "outputs": [
        {
          "internalType": "string",
          "name": "firstName",
          "type": "string"
        },
        {
          "internalType": "string",
          "name": "lastName",
          "type": "string"
        },
        {
          "internalType": "uint256",
          "name": "amountSpent",
          "type": "uint256"
        },
        {
          "internalType": "uint256",
          "name": "userId",
          "type": "uint256"
        }
      ],
      "stateMutability": "view",
      "type": "function"
    }
  ],
  "bytecode": "0x608060405234801561001057600080fd5b5061002d61002261003260201b60201c565b61003a60201b60201c565b6100fe565b600033905090565b60008060009054906101000a900473ffffffffffffffffffffffffffffffffffffffff169050816000806101000a81548173ffffffffffffffffffffffffffffffffffffffff021916908373ffffffffffffffffffffffffffffffffffffffff1602179055508173ffffffffffffffffffffffffffffffffffffffff168173ffffffffffffffffffffffffffffffffffffffff167f8be0079c531659141344cd1fd0a4f28419497f9722a3daafe3b4186f6b6457e060405160405180910390a35050565b61148b8061010d6000396000f3fe608060405234801561001057600080fd5b50600436106100885760003560e01c8063832880e71161005b578063832880e71461012a5780638da5cb5b14610148578063c5b7fc7514610166578063f2fde38b1461018257610088565b8063349796271461008d578063365b98b2146100bd5780636d3b5f18146100f0578063715018a614610120575b600080fd5b6100a760048036038101906100a29190610ae8565b61019e565b6040516100b49190610b79565b60405180910390f35b6100d760048036038101906100d29190610bc0565b610248565b6040516100e79493929190610c6c565b60405180910390f35b61010a60048036038101906101059190610bc0565b610388565b6040516101179190610d82565b60405180910390f35b6101286104ed565b005b610132610501565b60405161013f9190610ed0565b60405180910390f35b610150610713565b60405161015d9190610f33565b60405180910390f35b610180600480360381019061017b9190610f4e565b61073c565b005b61019c60048036038101906101979190610fba565b610775565b005b60006101a86107f8565b6101b26001610876565b60006101be600161088c565b905060006040518060800160405280868152602001858152602001600081526020018381525090508060026000848152602001908152602001600020600082015181600001908161020f91906111f3565b50602082015181600101908161022591906111f3565b506040820151816002015560608201518160030155905050819250505092915050565b600260205280600052604060002060009150905080600001805461026b90611016565b80601f016020809104026020016040519081016040528092919081815260200182805461029790611016565b80156102e45780601f106102b9576101008083540402835291602001916102e4565b820191906000526020600020905b8154815290600101906020018083116102c757829003601f168201915b5050505050908060010180546102f990611016565b80601f016020809104026020016040519081016040528092919081815260200182805461032590611016565b80156103725780601f1061034757610100808354040283529160200191610372565b820191906000526020600020905b81548152906001019060200180831161035557829003601f168201915b5050505050908060020154908060030154905084565b610390610966565b600260008381526020019081526020016000206040518060800160405290816000820180546103be90611016565b80601f01602080910402602001604051908101604052809291908181526020018280546103ea90611016565b80156104375780601f1061040c57610100808354040283529160200191610437565b820191906000526020600020905b81548152906001019060200180831161041a57829003601f168201915b5050505050815260200160018201805461045090611016565b80601f016020809104026020016040519081016040528092919081815260200182805461047c90611016565b80156104c95780601f1061049e576101008083540402835291602001916104c9565b820191906000526020600020905b8154815290600101906020018083116104ac57829003601f168201915b50505050508152602001600282015481526020016003820154815250509050919050565b6104f56107f8565b6104ff600061089a565b565b6060600061050f600161088c565b67ffffffffffffffff811115610528576105276109bd565b5b60405190808252806020026020018201604052801561056157816020015b61054e610966565b8152602001906001900390816105465790505b50905060005b610571600161088c565b81101561070b5760006002600060018461058b91906112f4565b81526020019081526020016000209050806040518060800160405290816000820180546105b790611016565b80601f01602080910402602001604051908101604052809291908181526020018280546105e390611016565b80156106305780601f1061060557610100808354040283529160200191610630565b820191906000526020600020905b81548152906001019060200180831161061357829003601f168201915b5050505050815260200160018201805461064990611016565b80601f016020809104026020016040519081016040528092919081815260200182805461067590611016565b80156106c25780601f10610697576101008083540402835291602001916106c2565b820191906000526020600020905b8154815290600101906020018083116106a557829003601f168201915b50505050508152602001600282015481526020016003820154815250508383815181106106f2576106f1611328565b5b6020026020010181905250508080600101915050610567565b508091505090565b60008060009054906101000a900473ffffffffffffffffffffffffffffffffffffffff16905090565b6107446107f8565b8060026000848152602001908152602001600020600201600082825461076a91906112f4565b925050819055505050565b61077d6107f8565b600073ffffffffffffffffffffffffffffffffffffffff168173ffffffffffffffffffffffffffffffffffffffff16036107ec576040517f08c379a00000000000000000000000000000000000000000000000000000000081526004016107e3906113c9565b60405180910390fd5b6107f58161089a565b50565b61080061095e565b73ffffffffffffffffffffffffffffffffffffffff1661081e610713565b73ffffffffffffffffffffffffffffffffffffffff1614610874576040517f08c379a000000000000000000000000000000000000000000000000000000000815260040161086b90611435565b60405180910390fd5b565b6001816000016000828254019250508190555050565b600081600001549050919050565b60008060009054906101000a900473ffffffffffffffffffffffffffffffffffffffff169050816000806101000a81548173ffffffffffffffffffffffffffffffffffffffff021916908373ffffffffffffffffffffffffffffffffffffffff1602179055508173ffffffffffffffffffffffffffffffffffffffff168173ffffffffffffffffffffffffffffffffffffffff167f8be0079c531659141344cd1fd0a4f28419497f9722a3daafe3b4186f6b6457e060405160405180910390a35050565b600033905090565b6040518060800160405280606081526020016060815260200160008152602001600081525090565b6000604051905090565b600080fd5b600080fd5b600080fd5b600080fd5b6000601f19601f8301169050919050565b7f4e487b7100000000000000000000000000000000000000000000000000000000600052604160045260246000fd5b6109f5826109ac565b810181811067ffffffffffffffff82111715610a1457610a136109bd565b5b80604052505050565b6000610a2761098e565b9050610a3382826109ec565b919050565b600067ffffffffffffffff821115610a5357610a526109bd565b5b610a5c826109ac565b9050602081019050919050565b82818337600083830152505050565b6000610a8b610a8684610a38565b610a1d565b905082815260208101848484011115610aa757610aa66109a7565b5b610ab2848285610a69565b509392505050565b600082601f830112610acf57610ace6109a2565b5b8135610adf848260208601610a78565b91505092915050565b60008060408385031215610aff57610afe610998565b5b600083013567ffffffffffffffff811115610b1d57610b1c61099d565b5b610b2985828601610aba565b925050602083013567ffffffffffffffff811115610b4a57610b4961099d565b5b610b5685828601610aba565b9150509250929050565b6000819050919050565b610b7381610b60565b82525050565b6000602082019050610b8e6000830184610b6a565b92915050565b610b9d81610b60565b8114610ba857600080fd5b50565b600081359050610bba81610b94565b92915050565b600060208284031215610bd657610bd5610998565b5b6000610be484828501610bab565b91505092915050565b600081519050919050565b600082825260208201905092915050565b60005b83811015610c27578082015181840152602081019050610c0c565b60008484015250505050565b6000610c3e82610bed565b610c488185610bf8565b9350610c58818560208601610c09565b610c61816109ac565b840191505092915050565b60006080820190508181036000830152610c868187610c33565b90508181036020830152610c9a8186610c33565b9050610ca96040830185610b6a565b610cb66060830184610b6a565b95945050505050565b600082825260208201905092915050565b6000610cdb82610bed565b610ce58185610cbf565b9350610cf5818560208601610c09565b610cfe816109ac565b840191505092915050565b610d1281610b60565b82525050565b60006080830160008301518482036000860152610d358282610cd0565b91505060208301518482036020860152610d4f8282610cd0565b9150506040830151610d646040860182610d09565b506060830151610d776060860182610d09565b508091505092915050565b60006020820190508181036000830152610d9c8184610d18565b905092915050565b600081519050919050565b600082825260208201905092915050565b6000819050602082019050919050565b60006080830160008301518482036000860152610ded8282610cd0565b91505060208301518482036020860152610e078282610cd0565b9150506040830151610e1c6040860182610d09565b506060830151610e2f6060860182610d09565b508091505092915050565b6000610e468383610dd0565b905092915050565b6000602082019050919050565b6000610e6682610da4565b610e708185610daf565b935083602082028501610e8285610dc0565b8060005b85811015610ebe5784840389528151610e9f8582610e3a565b9450610eaa83610e4e565b925060208a01995050600181019050610e86565b50829750879550505050505092915050565b60006020820190508181036000830152610eea8184610e5b565b905092915050565b600073ffffffffffffffffffffffffffffffffffffffff82169050919050565b6000610f1d82610ef2565b9050919050565b610f2d81610f12565b82525050565b6000602082019050610f486000830184610f24565b92915050565b60008060408385031215610f6557610f64610998565b5b6000610f7385828601610bab565b9250506020610f8485828601610bab565b9150509250929050565b610f9781610f12565b8114610fa257600080fd5b50565b600081359050610fb481610f8e565b92915050565b600060208284031215610fd057610fcf610998565b5b6000610fde84828501610fa5565b91505092915050565b7f4e487b7100000000000000000000000000000000000000000000000000000000600052602260045260246000fd5b6000600282049050600182168061102e57607f821691505b60208210810361104157611040610fe7565b5b50919050565b60008190508160005260206000209050919050565b60006020601f8301049050919050565b600082821b905092915050565b6000600883026110a97fffffffffffffffffffffffffffffffffffffffffffffffffffffffffffffffff8261106c565b6110b3868361106c565b95508019841693508086168417925050509392505050565b6000819050919050565b60006110f06110eb6110e684610b60565b6110cb565b610b60565b9050919050565b6000819050919050565b61110a836110d5565b61111e611116826110f7565b848454611079565b825550505050565b600090565b611133611126565b61113e818484611101565b505050565b5b818110156111625761115760008261112b565b600181019050611144565b5050565b601f8211156111a75761117881611047565b6111818461105c565b81016020851015611190578190505b6111a461119c8561105c565b830182611143565b50505b505050565b600082821c905092915050565b60006111ca600019846008026111ac565b1980831691505092915050565b60006111e383836111b9565b9150826002028217905092915050565b6111fc82610bed565b67ffffffffffffffff811115611215576112146109bd565b5b61121f8254611016565b61122a828285611166565b600060209050601f83116001811461125d576000841561124b578287015190505b61125585826111d7565b8655506112bd565b601f19841661126b86611047565b60005b828110156112935784890151825560018201915060208501945060208101905061126e565b868310156112b057848901516112ac601f8916826111b9565b8355505b6001600288020188555050505b505050505050565b7f4e487b7100000000000000000000000000000000000000000000000000000000600052601160045260246000fd5b60006112ff82610b60565b915061130a83610b60565b9250828201905080821115611322576113216112c5565b5b92915050565b7f4e487b7100000000000000000000000000000000000000000000000000000000600052603260045260246000fd5b7f4f776e61626c653a206e6577206f776e657220697320746865207a65726f206160008201527f6464726573730000000000000000000000000000000000000000000000000000602082015250565b60006113b3602683610bf8565b91506113be82611357565b604082019050919050565b600060208201905081810360008301526113e2816113a6565b9050919050565b7f4f776e61626c653a2063616c6c6572206973206e6f7420746865206f776e6572600082015250565b600061141f602083610bf8565b915061142a826113e9565b602082019050919050565b6000602082019050818103600083015261144e81611412565b905091905056fea2646970667358221220a548eb1d555ae151be3794a19f74436cfbffb1b2cb190a6527c4ca5d6c3fc3a464736f6c634300081b0033",
  "linkReferences": {},
  "deployedLinkReferences": {}
}