{
  "_format": "hh-sol-artifact-1",
  "contractName": "NFTClase",
  "sourceName": "contracts/NFTcontract.sol",
  "abi": [
    {
      "inputs": [],
      "stateMutability": "nonpayable",
      "type": "constructor"
    },
    {
      "anonymous": false,
      "inputs": [
        {
          "indexed": true,
          "internalType": "address",
          "name": "owner",
          "type": "address"
        },
        {
          "indexed": true,
          "internalType": "address",
          "name": "approved",
          "type": "address"
        },
        {
          "indexed": true,
          "internalType": "uint256",
          "name": "tokenId",
          "type": "uint256"
        }
      ],
      "name": "Approval",
      "type": "event"
    },
    {
      "anonymous": false,
      "inputs": [
        {
          "indexed": true,
          "internalType": "address",
          "name": "owner",
          "type": "address"
        },
        {
          "indexed": true,
          "internalType": "address",
          "name": "operator",
          "type": "address"
        },
        {
          "indexed": false,
          "internalType": "bool",
          "name": "approved",
          "type": "bool"
        }
      ],
      "name": "ApprovalForAll",
      "type": "event"
    },
    {
      "anonymous": false,
      "inputs": [
        {
          "indexed": true,
          "internalType": "address",
          "name": "previousOwner",
          "type": "address"
        },
        {
          "indexed": true,
          "internalType": "address",
          "name": "newOwner",
          "type": "address"
        }
      ],
      "name": "OwnershipTransferred",
      "type": "event"
    },
    {
      "anonymous": false,
      "inputs": [
        {
          "indexed": true,
          "internalType": "address",
          "name": "from",
          "type": "address"
        },
        {
          "indexed": true,
          "internalType": "address",
          "name": "to",
          "type": "address"
        },
        {
          "indexed": true,
          "internalType": "uint256",
          "name": "tokenId",
          "type": "uint256"
        }
      ],
      "name": "Transfer",
      "type": "event"
    },
    {
      "inputs": [
        {
          "internalType": "address",
          "name": "to",
          "type": "address"
        },
        {
          "internalType": "uint256",
          "name": "tokenId",
          "type": "uint256"
        }
      ],
      "name": "approve",
      "outputs": [],
      "stateMutability": "nonpayable",
      "type": "function"
    },
    {
      "inputs": [
        {
          "internalType": "address",
          "name": "owner",
          "type": "address"
        }
      ],
      "name": "balanceOf",
      "outputs": [
        {
          "internalType": "uint256",
          "name": "",
          "type": "uint256"
        }
      ],
      "stateMutability": "view",
      "type": "function"
    },
    {
      "inputs": [
        {
          "internalType": "uint256",
          "name": "tokenId",
          "type": "uint256"
        }
      ],
      "name": "getApproved",
      "outputs": [
        {
          "internalType": "address",
          "name": "",
          "type": "address"
        }
      ],
      "stateMutability": "view",
      "type": "function"
    },
    {
      "inputs": [
        {
          "internalType": "address",
          "name": "user",
          "type": "address"
        }
      ],
      "name": "getOwnedNfts",
      "outputs": [
        {
          "components": [
            {
              "internalType": "uint256",
              "name": "tokenId",
              "type": "uint256"
            },
            {
              "internalType": "string",
              "name": "tokenURI",
              "type": "string"
            }
          ],
          "internalType": "struct NFTClase.NFTItem[]",
          "name": "",
          "type": "tuple[]"
        }
      ],
      "stateMutability": "view",
      "type": "function"
    },
    {
      "inputs": [
        {
          "internalType": "address",
          "name": "owner",
          "type": "address"
        },
        {
          "internalType": "address",
          "name": "operator",
          "type": "address"
        }
      ],
      "name": "isApprovedForAll",
      "outputs": [
        {
          "internalType": "bool",
          "name": "",
          "type": "bool"
        }
      ],
      "stateMutability": "view",
      "type": "function"
    },
    {
      "inputs": [
        {
          "internalType": "address",
          "name": "recipient",
          "type": "address"
        },
        {
          "internalType": "string",
          "name": "_tokenURI",
          "type": "string"
        }
      ],
      "name": "mintNFT",
      "outputs": [
        {
          "internalType": "uint256",
          "name": "",
          "type": "uint256"
        }
      ],
      "stateMutability": "nonpayable",
      "type": "function"
    },
    {
      "inputs": [],
      "name": "name",
      "outputs": [
        {
          "internalType": "string",
          "name": "",
          "type": "string"
        }
      ],
      "stateMutability": "view",
      "type": "function"
    },
    {
      "inputs": [],
      "name": "owner",
      "outputs": [
        {
          "internalType": "address",
          "name": "",
          "type": "address"
        }
      ],
      "stateMutability": "view",
      "type": "function"
    },
    {
      "inputs": [
        {
          "internalType": "uint256",
          "name": "tokenId",
          "type": "uint256"
        }
      ],
      "name": "ownerOf",
      "outputs": [
        {
          "internalType": "address",
          "name": "",
          "type": "address"
        }
      ],
      "stateMutability": "view",
      "type": "function"
    },
    {
      "inputs": [],
      "name": "renounceOwnership",
      "outputs": [],
      "stateMutability": "nonpayable",
      "type": "function"
    },
    {
      "inputs": [
        {
          "internalType": "address",
          "name": "from",
          "type": "address"
        },
        {
          "internalType": "address",
          "name": "to",
          "type": "address"
        },
        {
          "internalType": "uint256",
          "name": "tokenId",
          "type": "uint256"
        }
      ],
      "name": "safeTransferFrom",
      "outputs": [],
      "stateMutability": "nonpayable",
      "type": "function"
    },
    {
      "inputs": [
        {
          "internalType": "address",
          "name": "from",
          "type": "address"
        },
        {
          "internalType": "address",
          "name": "to",
          "type": "address"
        },
        {
          "internalType": "uint256",
          "name": "tokenId",
          "type": "uint256"
        },
        {
          "internalType": "bytes",
          "name": "data",
          "type": "bytes"
        }
      ],
      "name": "safeTransferFrom",
      "outputs": [],
      "stateMutability": "nonpayable",
      "type": "function"
    },
    {
      "inputs": [
        {
          "internalType": "address",
          "name": "operator",
          "type": "address"
        },
        {
          "internalType": "bool",
          "name": "approved",
          "type": "bool"
        }
      ],
      "name": "setApprovalForAll",
      "outputs": [],
      "stateMutability": "nonpayable",
      "type": "function"
    },
    {
      "inputs": [
        {
          "internalType": "string",
          "name": "baseUri",
          "type": "string"
        }
      ],
      "name": "setBaseUri",
      "outputs": [],
      "stateMutability": "nonpayable",
      "type": "function"
    },
    {
      "inputs": [
        {
          "internalType": "bytes4",
          "name": "interfaceId",
          "type": "bytes4"
        }
      ],
      "name": "supportsInterface",
      "outputs": [
        {
          "internalType": "bool",
          "name": "",
          "type": "bool"
        }
      ],
      "stateMutability": "view",
      "type": "function"
    },
    {
      "inputs": [],
      "name": "symbol",
      "outputs": [
        {
          "internalType": "string",
          "name": "",
          "type": "string"
        }
      ],
      "stateMutability": "view",
      "type": "function"
    },
    {
      "inputs": [
        {
          "internalType": "address",
          "name": "owner",
          "type": "address"
        },
        {
          "internalType": "uint256",
          "name": "index",
          "type": "uint256"
        }
      ],
      "name": "tokenOwnerByIndex",
      "outputs": [
        {
          "internalType": "uint256",
          "name": "",
          "type": "uint256"
        }
      ],
      "stateMutability": "view",
      "type": "function"
    },
    {
      "inputs": [
        {
          "internalType": "uint256",
          "name": "tokenId",
          "type": "uint256"
        }
      ],
      "name": "tokenURI",
      "outputs": [
        {
          "internalType": "string",
          "name": "",
          "type": "string"
        }
      ],
      "stateMutability": "view",
      "type": "function"
    },
    {
      "inputs": [
        {
          "internalType": "address",
          "name": "from",
          "type": "address"
        },
        {
          "internalType": "address",
          "name": "to",
          "type": "address"
        },
        {
          "internalType": "uint256",
          "name": "tokenId",
          "type": "uint256"
        }
      ],
      "name": "transferFrom",
      "outputs": [],
      "stateMutability": "nonpayable",
      "type": "function"
    },
    {
      "inputs": [
        {
          "internalType": "address",
          "name": "newOwner",
          "type": "address"
        }
      ],
      "name": "transferOwnership",
      "outputs": [],
      "stateMutability": "nonpayable",
      "type": "function"
    }
  ],
  "bytecode": "0x608060405234801561001057600080fd5b506040518060400160405280600881526020017f4e4654434c4153450000000000000000000000000000000000000000000000008152506040518060400160405280600881526020017f4e4654434c415345000000000000000000000000000000000000000000000000815250816000908161008c91906103de565b50806001908161009c91906103de565b5050506100bb6100b06100c060201b60201c565b6100c860201b60201c565b6104b0565b600033905090565b6000600660009054906101000a900473ffffffffffffffffffffffffffffffffffffffff16905081600660006101000a81548173ffffffffffffffffffffffffffffffffffffffff021916908373ffffffffffffffffffffffffffffffffffffffff1602179055508173ffffffffffffffffffffffffffffffffffffffff168173ffffffffffffffffffffffffffffffffffffffff167f8be0079c531659141344cd1fd0a4f28419497f9722a3daafe3b4186f6b6457e060405160405180910390a35050565b600081519050919050565b7f4e487b7100000000000000000000000000000000000000000000000000000000600052604160045260246000fd5b7f4e487b7100000000000000000000000000000000000000000000000000000000600052602260045260246000fd5b6000600282049050600182168061020f57607f821691505b602082108103610222576102216101c8565b5b50919050565b60008190508160005260206000209050919050565b60006020601f8301049050919050565b600082821b905092915050565b60006008830261028a7fffffffffffffffffffffffffffffffffffffffffffffffffffffffffffffffff8261024d565b610294868361024d565b95508019841693508086168417925050509392505050565b6000819050919050565b6000819050919050565b60006102db6102d66102d1846102ac565b6102b6565b6102ac565b9050919050565b6000819050919050565b6102f5836102c0565b610309610301826102e2565b84845461025a565b825550505050565b600090565b61031e610311565b6103298184846102ec565b505050565b5b8181101561034d57610342600082610316565b60018101905061032f565b5050565b601f8211156103925761036381610228565b61036c8461023d565b8101602085101561037b578190505b61038f6103878561023d565b83018261032e565b50505b505050565b600082821c905092915050565b60006103b560001984600802610397565b1980831691505092915050565b60006103ce83836103a4565b9150826002028217905092915050565b6103e78261018e565b67ffffffffffffffff811115610400576103ff610199565b5b61040a82546101f7565b610415828285610351565b600060209050601f8311600181146104485760008415610436578287015190505b61044085826103c2565b8655506104a8565b601f19841661045686610228565b60005b8281101561047e57848901518255600182019150602085019450602081019050610459565b8683101561049b5784890151610497601f8916826103a4565b8355505b6001600288020188555050505b505050505050565b6134ab806104bf6000396000f3fe608060405234801561001057600080fd5b506004361061012c5760003560e01c806395d89b41116100ad578063c7adece011610071578063c7adece01461032d578063c87b56dd1461035d578063e985e9c51461038d578063eacabe14146103bd578063f2fde38b146103ed5761012c565b806395d89b411461028b578063a0bcfc7f146102a9578063a22cb465146102c5578063a83328b3146102e1578063b88d4fde146103115761012c565b806342842e0e116100f457806342842e0e146101e75780636352211e1461020357806370a0823114610233578063715018a6146102635780638da5cb5b1461026d5761012c565b806301ffc9a71461013157806306fdde0314610161578063081812fc1461017f578063095ea7b3146101af57806323b872dd146101cb575b600080fd5b61014b60048036038101906101469190611f49565b610409565b6040516101589190611f91565b60405180910390f35b6101696104eb565b604051610176919061203c565b60405180910390f35b61019960048036038101906101949190612094565b61057d565b6040516101a69190612102565b60405180910390f35b6101c960048036038101906101c49190612149565b6105c3565b005b6101e560048036038101906101e09190612189565b6106da565b005b61020160048036038101906101fc9190612189565b61073a565b005b61021d60048036038101906102189190612094565b61075a565b60405161022a9190612102565b60405180910390f35b61024d600480360381019061024891906121dc565b6107e0565b60405161025a9190612218565b60405180910390f35b61026b610897565b005b6102756108ab565b6040516102829190612102565b60405180910390f35b6102936108d5565b6040516102a0919061203c565b60405180910390f35b6102c360048036038101906102be9190612368565b610967565b005b6102df60048036038101906102da91906123dd565b610982565b005b6102fb60048036038101906102f69190612149565b610998565b6040516103089190612218565b60405180910390f35b61032b600480360381019061032691906124be565b610a3d565b005b610347600480360381019061034291906121dc565b610a9f565b6040516103549190612699565b60405180910390f35b61037760048036038101906103729190612094565b610c16565b604051610384919061203c565b60405180910390f35b6103a760048036038101906103a291906126bb565b610d88565b6040516103b49190611f91565b60405180910390f35b6103d760048036038101906103d291906126fb565b610e1c565b6040516103e49190612218565b60405180910390f35b610407600480360381019061040291906121dc565b610f16565b005b60007f80ac58cd000000000000000000000000000000000000000000000000000000007bffffffffffffffffffffffffffffffffffffffffffffffffffffffff1916827bffffffffffffffffffffffffffffffffffffffffffffffffffffffff191614806104d457507f5b5e139f000000000000000000000000000000000000000000000000000000007bffffffffffffffffffffffffffffffffffffffffffffffffffffffff1916827bffffffffffffffffffffffffffffffffffffffffffffffffffffffff1916145b806104e457506104e382610f99565b5b9050919050565b6060600080546104fa90612786565b80601f016020809104026020016040519081016040528092919081815260200182805461052690612786565b80156105735780601f1061054857610100808354040283529160200191610573565b820191906000526020600020905b81548152906001019060200180831161055657829003601f168201915b5050505050905090565b600061058882611003565b6004600083815260200190815260200160002060009054906101000a900473ffffffffffffffffffffffffffffffffffffffff169050919050565b60006105ce8261075a565b90508073ffffffffffffffffffffffffffffffffffffffff168373ffffffffffffffffffffffffffffffffffffffff160361063e576040517f08c379a000000000000000000000000000000000000000000000000000000000815260040161063590612829565b60405180910390fd5b8073ffffffffffffffffffffffffffffffffffffffff1661065d61104e565b73ffffffffffffffffffffffffffffffffffffffff16148061068c575061068b8161068661104e565b610d88565b5b6106cb576040517f08c379a00000000000000000000000000000000000000000000000000000000081526004016106c2906128bb565b60405180910390fd5b6106d58383611056565b505050565b6106eb6106e561104e565b8261110f565b61072a576040517f08c379a00000000000000000000000000000000000000000000000000000000081526004016107219061294d565b60405180910390fd5b6107358383836111a4565b505050565b61075583838360405180602001604052806000815250610a3d565b505050565b6000806107668361149d565b9050600073ffffffffffffffffffffffffffffffffffffffff168173ffffffffffffffffffffffffffffffffffffffff16036107d7576040517f08c379a00000000000000000000000000000000000000000000000000000000081526004016107ce906129b9565b60405180910390fd5b80915050919050565b60008073ffffffffffffffffffffffffffffffffffffffff168273ffffffffffffffffffffffffffffffffffffffff1603610850576040517f08c379a000000000000000000000000000000000000000000000000000000000815260040161084790612a4b565b60405180910390fd5b600360008373ffffffffffffffffffffffffffffffffffffffff1673ffffffffffffffffffffffffffffffffffffffff168152602001908152602001600020549050919050565b61089f6114da565b6108a96000611558565b565b6000600660009054906101000a900473ffffffffffffffffffffffffffffffffffffffff16905090565b6060600180546108e490612786565b80601f016020809104026020016040519081016040528092919081815260200182805461091090612786565b801561095d5780601f106109325761010080835404028352916020019161095d565b820191906000526020600020905b81548152906001019060200180831161094057829003601f168201915b5050505050905090565b61096f6114da565b80600a908161097e9190612c17565b5050565b61099461098d61104e565b838361161e565b5050565b60006109a3836107e0565b82106109e4576040517f08c379a00000000000000000000000000000000000000000000000000000000081526004016109db90612d35565b60405180910390fd5b600b60008473ffffffffffffffffffffffffffffffffffffffff1673ffffffffffffffffffffffffffffffffffffffff168152602001908152602001600020600083815260200190815260200160002054905092915050565b610a4e610a4861104e565b8361110f565b610a8d576040517f08c379a0000000000000000000000000000000000000000000000000000000008152600401610a849061294d565b60405180910390fd5b610a998484848461178a565b50505050565b60606000610aac836107e0565b905060008167ffffffffffffffff811115610aca57610ac961223d565b5b604051908082528060200260200182016040528015610b0357816020015b610af0611ec3565b815260200190600190039081610ae85790505b50905060005b82811015610c0b576000610b1d8683610998565b905060006008600083815260200190815260200160002090508060405180604001604052908160008201548152602001600182018054610b5c90612786565b80601f0160208091040260200160405190810160405280929190818152602001828054610b8890612786565b8015610bd55780601f10610baa57610100808354040283529160200191610bd5565b820191906000526020600020905b815481529060010190602001808311610bb857829003601f168201915b505050505081525050848481518110610bf157610bf0612d55565b5b602002602001018190525050508080600101915050610b09565b508092505050919050565b6060610c21826117e6565b610c60576040517f08c379a0000000000000000000000000000000000000000000000000000000008152600401610c5790612df6565b60405180910390fd5b6000600960008481526020019081526020016000208054610c8090612786565b80601f0160208091040260200160405190810160405280929190818152602001828054610cac90612786565b8015610cf95780601f10610cce57610100808354040283529160200191610cf9565b820191906000526020600020905b815481529060010190602001808311610cdc57829003601f168201915b505050505090506000610d0a611827565b90506000815103610d1f578192505050610d83565b600082511115610d54578082604051602001610d3c929190612e52565b60405160208183030381529060405292505050610d83565b80610d5e8561183e565b604051602001610d6f929190612e52565b604051602081830303815290604052925050505b919050565b6000600560008473ffffffffffffffffffffffffffffffffffffffff1673ffffffffffffffffffffffffffffffffffffffff16815260200190815260200160002060008373ffffffffffffffffffffffffffffffffffffffff1673ffffffffffffffffffffffffffffffffffffffff16815260200190815260200160002060009054906101000a900460ff16905092915050565b6000610e266114da565b610e30600761190c565b6000610e3c6007611922565b9050610e488482611930565b610e528184611b4d565b60405180604001604052808281526020018481525060086000838152602001908152602001600020600082015181600001556020820151816001019081610e999190612c17565b5090505060006001610eaa866107e0565b610eb49190612ea5565b905081600b60008773ffffffffffffffffffffffffffffffffffffffff1673ffffffffffffffffffffffffffffffffffffffff168152602001908152602001600020600083815260200190815260200160002081905550819250505092915050565b610f1e6114da565b600073ffffffffffffffffffffffffffffffffffffffff168173ffffffffffffffffffffffffffffffffffffffff1603610f8d576040517f08c379a0000000000000000000000000000000000000000000000000000000008152600401610f8490612f4b565b60405180910390fd5b610f9681611558565b50565b60007f01ffc9a7000000000000000000000000000000000000000000000000000000007bffffffffffffffffffffffffffffffffffffffffffffffffffffffff1916827bffffffffffffffffffffffffffffffffffffffffffffffffffffffff1916149050919050565b61100c816117e6565b61104b576040517f08c379a0000000000000000000000000000000000000000000000000000000008152600401611042906129b9565b60405180910390fd5b50565b600033905090565b816004600083815260200190815260200160002060006101000a81548173ffffffffffffffffffffffffffffffffffffffff021916908373ffffffffffffffffffffffffffffffffffffffff160217905550808273ffffffffffffffffffffffffffffffffffffffff166110c98361075a565b73ffffffffffffffffffffffffffffffffffffffff167f8c5be1e5ebec7d5bd14f71427d1e84f3dd0314c0f7b2291e5b200ac8c7c3b92560405160405180910390a45050565b60008061111b8361075a565b90508073ffffffffffffffffffffffffffffffffffffffff168473ffffffffffffffffffffffffffffffffffffffff16148061115d575061115c8185610d88565b5b8061119b57508373ffffffffffffffffffffffffffffffffffffffff166111838461057d565b73ffffffffffffffffffffffffffffffffffffffff16145b91505092915050565b8273ffffffffffffffffffffffffffffffffffffffff166111c48261075a565b73ffffffffffffffffffffffffffffffffffffffff161461121a576040517f08c379a000000000000000000000000000000000000000000000000000000000815260040161121190612fdd565b60405180910390fd5b600073ffffffffffffffffffffffffffffffffffffffff168273ffffffffffffffffffffffffffffffffffffffff1603611289576040517f08c379a00000000000000000000000000000000000000000000000000000000081526004016112809061306f565b60405180910390fd5b6112968383836001611bba565b8273ffffffffffffffffffffffffffffffffffffffff166112b68261075a565b73ffffffffffffffffffffffffffffffffffffffff161461130c576040517f08c379a000000000000000000000000000000000000000000000000000000000815260040161130390612fdd565b60405180910390fd5b6004600082815260200190815260200160002060006101000a81549073ffffffffffffffffffffffffffffffffffffffff02191690556001600360008573ffffffffffffffffffffffffffffffffffffffff1673ffffffffffffffffffffffffffffffffffffffff168152602001908152602001600020600082825403925050819055506001600360008473ffffffffffffffffffffffffffffffffffffffff1673ffffffffffffffffffffffffffffffffffffffff16815260200190815260200160002060008282540192505081905550816002600083815260200190815260200160002060006101000a81548173ffffffffffffffffffffffffffffffffffffffff021916908373ffffffffffffffffffffffffffffffffffffffff160217905550808273ffffffffffffffffffffffffffffffffffffffff168473ffffffffffffffffffffffffffffffffffffffff167fddf252ad1be2c89b69c2b068fc378daa952ba7f163c4a11628f55a4df523b3ef60405160405180910390a46114988383836001611bc0565b505050565b60006002600083815260200190815260200160002060009054906101000a900473ffffffffffffffffffffffffffffffffffffffff169050919050565b6114e261104e565b73ffffffffffffffffffffffffffffffffffffffff166115006108ab565b73ffffffffffffffffffffffffffffffffffffffff1614611556576040517f08c379a000000000000000000000000000000000000000000000000000000000815260040161154d906130db565b60405180910390fd5b565b6000600660009054906101000a900473ffffffffffffffffffffffffffffffffffffffff16905081600660006101000a81548173ffffffffffffffffffffffffffffffffffffffff021916908373ffffffffffffffffffffffffffffffffffffffff1602179055508173ffffffffffffffffffffffffffffffffffffffff168173ffffffffffffffffffffffffffffffffffffffff167f8be0079c531659141344cd1fd0a4f28419497f9722a3daafe3b4186f6b6457e060405160405180910390a35050565b8173ffffffffffffffffffffffffffffffffffffffff168373ffffffffffffffffffffffffffffffffffffffff160361168c576040517f08c379a000000000000000000000000000000000000000000000000000000000815260040161168390613147565b60405180910390fd5b80600560008573ffffffffffffffffffffffffffffffffffffffff1673ffffffffffffffffffffffffffffffffffffffff16815260200190815260200160002060008473ffffffffffffffffffffffffffffffffffffffff1673ffffffffffffffffffffffffffffffffffffffff16815260200190815260200160002060006101000a81548160ff0219169083151502179055508173ffffffffffffffffffffffffffffffffffffffff168373ffffffffffffffffffffffffffffffffffffffff167f17307eab39ab6107e8899845ad3d59bd9653f200f220920489ca2b5937696c318360405161177d9190611f91565b60405180910390a3505050565b6117958484846111a4565b6117a184848484611bc6565b6117e0576040517f08c379a00000000000000000000000000000000000000000000000000000000081526004016117d7906131d9565b60405180910390fd5b50505050565b60008073ffffffffffffffffffffffffffffffffffffffff166118088361149d565b73ffffffffffffffffffffffffffffffffffffffff1614159050919050565b606060405180602001604052806000815250905090565b60606000600161184d84611d4d565b01905060008167ffffffffffffffff81111561186c5761186b61223d565b5b6040519080825280601f01601f19166020018201604052801561189e5781602001600182028036833780820191505090505b509050600082602001820190505b600115611901578080600190039150507f3031323334353637383961626364656600000000000000000000000000000000600a86061a8153600a85816118f5576118f46131f9565b5b049450600085036118ac575b819350505050919050565b6001816000016000828254019250508190555050565b600081600001549050919050565b600073ffffffffffffffffffffffffffffffffffffffff168273ffffffffffffffffffffffffffffffffffffffff160361199f576040517f08c379a000000000000000000000000000000000000000000000000000000000815260040161199690613274565b60405180910390fd5b6119a8816117e6565b156119e8576040517f08c379a00000000000000000000000000000000000000000000000000000000081526004016119df906132e0565b60405180910390fd5b6119f6600083836001611bba565b6119ff816117e6565b15611a3f576040517f08c379a0000000000000000000000000000000000000000000000000000000008152600401611a36906132e0565b60405180910390fd5b6001600360008473ffffffffffffffffffffffffffffffffffffffff1673ffffffffffffffffffffffffffffffffffffffff16815260200190815260200160002060008282540192505081905550816002600083815260200190815260200160002060006101000a81548173ffffffffffffffffffffffffffffffffffffffff021916908373ffffffffffffffffffffffffffffffffffffffff160217905550808273ffffffffffffffffffffffffffffffffffffffff16600073ffffffffffffffffffffffffffffffffffffffff167fddf252ad1be2c89b69c2b068fc378daa952ba7f163c4a11628f55a4df523b3ef60405160405180910390a4611b49600083836001611bc0565b5050565b611b56826117e6565b611b95576040517f08c379a0000000000000000000000000000000000000000000000000000000008152600401611b8c90613372565b60405180910390fd5b80600960008481526020019081526020016000209081611bb59190612c17565b505050565b50505050565b50505050565b6000611be78473ffffffffffffffffffffffffffffffffffffffff16611ea0565b15611d40578373ffffffffffffffffffffffffffffffffffffffff1663150b7a02611c1061104e565b8786866040518563ffffffff1660e01b8152600401611c3294939291906133e7565b6020604051808303816000875af1925050508015611c6e57506040513d601f19601f82011682018060405250810190611c6b9190613448565b60015b611cf0573d8060008114611c9e576040519150601f19603f3d011682016040523d82523d6000602084013e611ca3565b606091505b506000815103611ce8576040517f08c379a0000000000000000000000000000000000000000000000000000000008152600401611cdf906131d9565b60405180910390fd5b805181602001fd5b63150b7a0260e01b7bffffffffffffffffffffffffffffffffffffffffffffffffffffffff1916817bffffffffffffffffffffffffffffffffffffffffffffffffffffffff191614915050611d45565b600190505b949350505050565b600080600090507a184f03e93ff9f4daa797ed6e38ed64bf6a1f0100000000000000008310611dab577a184f03e93ff9f4daa797ed6e38ed64bf6a1f0100000000000000008381611da157611da06131f9565b5b0492506040810190505b6d04ee2d6d415b85acef81000000008310611de8576d04ee2d6d415b85acef81000000008381611dde57611ddd6131f9565b5b0492506020810190505b662386f26fc100008310611e1757662386f26fc100008381611e0d57611e0c6131f9565b5b0492506010810190505b6305f5e1008310611e40576305f5e1008381611e3657611e356131f9565b5b0492506008810190505b6127108310611e65576127108381611e5b57611e5a6131f9565b5b0492506004810190505b60648310611e885760648381611e7e57611e7d6131f9565b5b0492506002810190505b600a8310611e97576001810190505b80915050919050565b6000808273ffffffffffffffffffffffffffffffffffffffff163b119050919050565b604051806040016040528060008152602001606081525090565b6000604051905090565b600080fd5b600080fd5b60007fffffffff0000000000000000000000000000000000000000000000000000000082169050919050565b611f2681611ef1565b8114611f3157600080fd5b50565b600081359050611f4381611f1d565b92915050565b600060208284031215611f5f57611f5e611ee7565b5b6000611f6d84828501611f34565b91505092915050565b60008115159050919050565b611f8b81611f76565b82525050565b6000602082019050611fa66000830184611f82565b92915050565b600081519050919050565b600082825260208201905092915050565b60005b83811015611fe6578082015181840152602081019050611fcb565b60008484015250505050565b6000601f19601f8301169050919050565b600061200e82611fac565b6120188185611fb7565b9350612028818560208601611fc8565b61203181611ff2565b840191505092915050565b600060208201905081810360008301526120568184612003565b905092915050565b6000819050919050565b6120718161205e565b811461207c57600080fd5b50565b60008135905061208e81612068565b92915050565b6000602082840312156120aa576120a9611ee7565b5b60006120b88482850161207f565b91505092915050565b600073ffffffffffffffffffffffffffffffffffffffff82169050919050565b60006120ec826120c1565b9050919050565b6120fc816120e1565b82525050565b600060208201905061211760008301846120f3565b92915050565b612126816120e1565b811461213157600080fd5b50565b6000813590506121438161211d565b92915050565b600080604083850312156121605761215f611ee7565b5b600061216e85828601612134565b925050602061217f8582860161207f565b9150509250929050565b6000806000606084860312156121a2576121a1611ee7565b5b60006121b086828701612134565b93505060206121c186828701612134565b92505060406121d28682870161207f565b9150509250925092565b6000602082840312156121f2576121f1611ee7565b5b600061220084828501612134565b91505092915050565b6122128161205e565b82525050565b600060208201905061222d6000830184612209565b92915050565b600080fd5b600080fd5b7f4e487b7100000000000000000000000000000000000000000000000000000000600052604160045260246000fd5b61227582611ff2565b810181811067ffffffffffffffff821117156122945761229361223d565b5b80604052505050565b60006122a7611edd565b90506122b3828261226c565b919050565b600067ffffffffffffffff8211156122d3576122d261223d565b5b6122dc82611ff2565b9050602081019050919050565b82818337600083830152505050565b600061230b612306846122b8565b61229d565b90508281526020810184848401111561232757612326612238565b5b6123328482856122e9565b509392505050565b600082601f83011261234f5761234e612233565b5b813561235f8482602086016122f8565b91505092915050565b60006020828403121561237e5761237d611ee7565b5b600082013567ffffffffffffffff81111561239c5761239b611eec565b5b6123a88482850161233a565b91505092915050565b6123ba81611f76565b81146123c557600080fd5b50565b6000813590506123d7816123b1565b92915050565b600080604083850312156123f4576123f3611ee7565b5b600061240285828601612134565b9250506020612413858286016123c8565b9150509250929050565b600067ffffffffffffffff8211156124385761243761223d565b5b61244182611ff2565b9050602081019050919050565b600061246161245c8461241d565b61229d565b90508281526020810184848401111561247d5761247c612238565b5b6124888482856122e9565b509392505050565b600082601f8301126124a5576124a4612233565b5b81356124b584826020860161244e565b91505092915050565b600080600080608085870312156124d8576124d7611ee7565b5b60006124e687828801612134565b94505060206124f787828801612134565b93505060406125088782880161207f565b925050606085013567ffffffffffffffff81111561252957612528611eec565b5b61253587828801612490565b91505092959194509250565b600081519050919050565b600082825260208201905092915050565b6000819050602082019050919050565b6125768161205e565b82525050565b600082825260208201905092915050565b600061259882611fac565b6125a2818561257c565b93506125b2818560208601611fc8565b6125bb81611ff2565b840191505092915050565b60006040830160008301516125de600086018261256d565b50602083015184820360208601526125f6828261258d565b9150508091505092915050565b600061260f83836125c6565b905092915050565b6000602082019050919050565b600061262f82612541565b612639818561254c565b93508360208202850161264b8561255d565b8060005b8581101561268757848403895281516126688582612603565b945061267383612617565b925060208a0199505060018101905061264f565b50829750879550505050505092915050565b600060208201905081810360008301526126b38184612624565b905092915050565b600080604083850312156126d2576126d1611ee7565b5b60006126e085828601612134565b92505060206126f185828601612134565b9150509250929050565b6000806040838503121561271257612711611ee7565b5b600061272085828601612134565b925050602083013567ffffffffffffffff81111561274157612740611eec565b5b61274d8582860161233a565b9150509250929050565b7f4e487b7100000000000000000000000000000000000000000000000000000000600052602260045260246000fd5b6000600282049050600182168061279e57607f821691505b6020821081036127b1576127b0612757565b5b50919050565b7f4552433732313a20617070726f76616c20746f2063757272656e74206f776e6560008201527f7200000000000000000000000000000000000000000000000000000000000000602082015250565b6000612813602183611fb7565b915061281e826127b7565b604082019050919050565b6000602082019050818103600083015261284281612806565b9050919050565b7f4552433732313a20617070726f76652063616c6c6572206973206e6f7420746f60008201527f6b656e206f776e6572206f7220617070726f76656420666f7220616c6c000000602082015250565b60006128a5603d83611fb7565b91506128b082612849565b604082019050919050565b600060208201905081810360008301526128d481612898565b9050919050565b7f4552433732313a2063616c6c6572206973206e6f7420746f6b656e206f776e6560008201527f72206f7220617070726f76656400000000000000000000000000000000000000602082015250565b6000612937602d83611fb7565b9150612942826128db565b604082019050919050565b600060208201905081810360008301526129668161292a565b9050919050565b7f4552433732313a20696e76616c696420746f6b656e2049440000000000000000600082015250565b60006129a3601883611fb7565b91506129ae8261296d565b602082019050919050565b600060208201905081810360008301526129d281612996565b9050919050565b7f4552433732313a2061646472657373207a65726f206973206e6f74206120766160008201527f6c6964206f776e65720000000000000000000000000000000000000000000000602082015250565b6000612a35602983611fb7565b9150612a40826129d9565b604082019050919050565b60006020820190508181036000830152612a6481612a28565b9050919050565b60008190508160005260206000209050919050565b60006020601f8301049050919050565b600082821b905092915050565b600060088302612acd7fffffffffffffffffffffffffffffffffffffffffffffffffffffffffffffffff82612a90565b612ad78683612a90565b95508019841693508086168417925050509392505050565b6000819050919050565b6000612b14612b0f612b0a8461205e565b612aef565b61205e565b9050919050565b6000819050919050565b612b2e83612af9565b612b42612b3a82612b1b565b848454612a9d565b825550505050565b600090565b612b57612b4a565b612b62818484612b25565b505050565b5b81811015612b8657612b7b600082612b4f565b600181019050612b68565b5050565b601f821115612bcb57612b9c81612a6b565b612ba584612a80565b81016020851015612bb4578190505b612bc8612bc085612a80565b830182612b67565b50505b505050565b600082821c905092915050565b6000612bee60001984600802612bd0565b1980831691505092915050565b6000612c078383612bdd565b9150826002028217905092915050565b612c2082611fac565b67ffffffffffffffff811115612c3957612c3861223d565b5b612c438254612786565b612c4e828285612b8a565b600060209050601f831160018114612c815760008415612c6f578287015190505b612c798582612bfb565b865550612ce1565b601f198416612c8f86612a6b565b60005b82811015612cb757848901518255600182019150602085019450602081019050612c92565b86831015612cd45784890151612cd0601f891682612bdd565b8355505b6001600288020188555050505b505050505050565b7f496e646578206f7574206f6620626f756e64732e000000000000000000000000600082015250565b6000612d1f601483611fb7565b9150612d2a82612ce9565b602082019050919050565b60006020820190508181036000830152612d4e81612d12565b9050919050565b7f4e487b7100000000000000000000000000000000000000000000000000000000600052603260045260246000fd5b7f4552433732314d657461646174613a20555249207175657279206f66206e6f6e60008201527f6578697374656e7420746f6b656e000000000000000000000000000000000000602082015250565b6000612de0602e83611fb7565b9150612deb82612d84565b604082019050919050565b60006020820190508181036000830152612e0f81612dd3565b9050919050565b600081905092915050565b6000612e2c82611fac565b612e368185612e16565b9350612e46818560208601611fc8565b80840191505092915050565b6000612e5e8285612e21565b9150612e6a8284612e21565b91508190509392505050565b7f4e487b7100000000000000000000000000000000000000000000000000000000600052601160045260246000fd5b6000612eb08261205e565b9150612ebb8361205e565b9250828203905081811115612ed357612ed2612e76565b5b92915050565b7f4f776e61626c653a206e6577206f776e657220697320746865207a65726f206160008201527f6464726573730000000000000000000000000000000000000000000000000000602082015250565b6000612f35602683611fb7565b9150612f4082612ed9565b604082019050919050565b60006020820190508181036000830152612f6481612f28565b9050919050565b7f4552433732313a207472616e736665722066726f6d20696e636f72726563742060008201527f6f776e6572000000000000000000000000000000000000000000000000000000602082015250565b6000612fc7602583611fb7565b9150612fd282612f6b565b604082019050919050565b60006020820190508181036000830152612ff681612fba565b9050919050565b7f4552433732313a207472616e7366657220746f20746865207a65726f2061646460008201527f7265737300000000000000000000000000000000000000000000000000000000602082015250565b6000613059602483611fb7565b915061306482612ffd565b604082019050919050565b600060208201905081810360008301526130888161304c565b9050919050565b7f4f776e61626c653a2063616c6c6572206973206e6f7420746865206f776e6572600082015250565b60006130c5602083611fb7565b91506130d08261308f565b602082019050919050565b600060208201905081810360008301526130f4816130b8565b9050919050565b7f4552433732313a20617070726f766520746f2063616c6c657200000000000000600082015250565b6000613131601983611fb7565b915061313c826130fb565b602082019050919050565b6000602082019050818103600083015261316081613124565b9050919050565b7f4552433732313a207472616e7366657220746f206e6f6e20455243373231526560008201527f63656976657220696d706c656d656e7465720000000000000000000000000000602082015250565b60006131c3603283611fb7565b91506131ce82613167565b604082019050919050565b600060208201905081810360008301526131f2816131b6565b9050919050565b7f4e487b7100000000000000000000000000000000000000000000000000000000600052601260045260246000fd5b7f4552433732313a206d696e7420746f20746865207a65726f2061646472657373600082015250565b600061325e602083611fb7565b915061326982613228565b602082019050919050565b6000602082019050818103600083015261328d81613251565b9050919050565b7f4552433732313a20746f6b656e20616c7265616479206d696e74656400000000600082015250565b60006132ca601c83611fb7565b91506132d582613294565b602082019050919050565b600060208201905081810360008301526132f9816132bd565b9050919050565b7f4552433732314d6574613a2055524920736574206f66206e6f6e65786973746560008201527f6e7420746f6b656e000000000000000000000000000000000000000000000000602082015250565b600061335c602883611fb7565b915061336782613300565b604082019050919050565b6000602082019050818103600083015261338b8161334f565b9050919050565b600081519050919050565b600082825260208201905092915050565b60006133b982613392565b6133c3818561339d565b93506133d3818560208601611fc8565b6133dc81611ff2565b840191505092915050565b60006080820190506133fc60008301876120f3565b61340960208301866120f3565b6134166040830185612209565b818103606083015261342881846133ae565b905095945050505050565b60008151905061344281611f1d565b92915050565b60006020828403121561345e5761345d611ee7565b5b600061346c84828501613433565b9150509291505056fea264697066735822122055530e496978f113147edc700b45d0edd9540799633b1b81d415629dd0f04d8064736f6c634300081b0033",
  "linkReferences": {},
  "deployedLinkReferences": {}
}