{
  "_format": "hh-sol-artifact-1",
  "contractName": "WalletMultiSig",
  "sourceName": "contracts/Wallet.sol",
  "abi": [
    {
      "inputs": [
        {
          "internalType": "address[]",
          "name": "_owners",
          "type": "address[]"
        },
        {
          "internalType": "uint256",
          "name": "_requiredApprovals",
          "type": "uint256"
        }
      ],
      "stateMutability": "nonpayable",
      "type": "constructor"
    },
    {
      "anonymous": false,
      "inputs": [
        {
          "indexed": true,
          "internalType": "address",
          "name": "sender",
          "type": "address"
        },
        {
          "indexed": false,
          "internalType": "uint256",
          "name": "amount",
          "type": "uint256"
        }
      ],
      "name": "Deposit",
      "type": "event"
    },
    {
      "inputs": [
        {
          "internalType": "uint256",
          "name": "",
          "type": "uint256"
        },
        {
          "internalType": "address",
          "name": "",
          "type": "address"
        }
      ],
      "name": "approvals",
      "outputs": [
        {
          "internalType": "bool",
          "name": "",
          "type": "bool"
        }
      ],
      "stateMutability": "view",
      "type": "function"
    },
    {
      "inputs": [
        {
          "internalType": "uint256",
          "name": "_transactionId",
          "type": "uint256"
        }
      ],
      "name": "approveTransaction",
      "outputs": [],
      "stateMutability": "nonpayable",
      "type": "function"
    },
    {
      "inputs": [],
      "name": "deposit",
      "outputs": [],
      "stateMutability": "payable",
      "type": "function"
    },
    {
      "inputs": [
        {
          "internalType": "uint256",
          "name": "_transactionId",
          "type": "uint256"
        }
      ],
      "name": "executeTransaction",
      "outputs": [],
      "stateMutability": "nonpayable",
      "type": "function"
    },
    {
      "inputs": [],
      "name": "getTransactions",
      "outputs": [
        {
          "components": [
            {
              "internalType": "address",
              "name": "to",
              "type": "address"
            },
            {
              "internalType": "uint256",
              "name": "amount",
              "type": "uint256"
            },
            {
              "internalType": "uint256",
              "name": "approvalCount",
              "type": "uint256"
            },
            {
              "internalType": "bool",
              "name": "executed",
              "type": "bool"
            }
          ],
          "internalType": "struct WalletMultiSig.StructTransaction[]",
          "name": "",
          "type": "tuple[]"
        }
      ],
      "stateMutability": "view",
      "type": "function"
    },
    {
      "inputs": [
        {
          "internalType": "address",
          "name": "",
          "type": "address"
        }
      ],
      "name": "isOwner",
      "outputs": [
        {
          "internalType": "bool",
          "name": "",
          "type": "bool"
        }
      ],
      "stateMutability": "view",
      "type": "function"
    },
    {
      "inputs": [
        {
          "internalType": "uint256",
          "name": "",
          "type": "uint256"
        }
      ],
      "name": "owners",
      "outputs": [
        {
          "internalType": "address",
          "name": "",
          "type": "address"
        }
      ],
      "stateMutability": "view",
      "type": "function"
    },
    {
      "inputs": [],
      "name": "requiredApprovals",
      "outputs": [
        {
          "internalType": "uint256",
          "name": "",
          "type": "uint256"
        }
      ],
      "stateMutability": "view",
      "type": "function"
    },
    {
      "inputs": [
        {
          "internalType": "address",
          "name": "_to",
          "type": "address"
        },
        {
          "internalType": "uint256",
          "name": "_amount",
          "type": "uint256"
        }
      ],
      "name": "submitTransaction",
      "outputs": [],
      "stateMutability": "nonpayable",
      "type": "function"
    },
    {
      "inputs": [
        {
          "internalType": "uint256",
          "name": "",
          "type": "uint256"
        }
      ],
      "name": "transactions",
      "outputs": [
        {
          "internalType": "address",
          "name": "to",
          "type": "address"
        },
        {
          "internalType": "uint256",
          "name": "amount",
          "type": "uint256"
        },
        {
          "internalType": "uint256",
          "name": "approvalCount",
          "type": "uint256"
        },
        {
          "internalType": "bool",
          "name": "executed",
          "type": "bool"
        }
      ],
      "stateMutability": "view",
      "type": "function"
    }
  ],
  "bytecode": "0x608060405234801561001057600080fd5b506040516116873803806116878339818101604052810190610032919061041f565b6000825111610076576040517f08c379a000000000000000000000000000000000000000000000000000000000815260040161006d906104d8565b60405180910390fd5b600081118015610087575081518111155b6100c6576040517f08c379a00000000000000000000000000000000000000000000000000000000081526004016100bd90610544565b60405180910390fd5b60005b8251811015610151576001600260008584815181106100eb576100ea610564565b5b602002602001015173ffffffffffffffffffffffffffffffffffffffff1673ffffffffffffffffffffffffffffffffffffffff16815260200190815260200160002060006101000a81548160ff02191690831515021790555080806001019150506100c9565b508160009080519060200190610168929190610177565b50806001819055505050610593565b8280548282559060005260206000209081019282156101f0579160200282015b828111156101ef5782518260006101000a81548173ffffffffffffffffffffffffffffffffffffffff021916908373ffffffffffffffffffffffffffffffffffffffff16021790555091602001919060010190610197565b5b5090506101fd9190610201565b5090565b5b8082111561021a576000816000905550600101610202565b5090565b6000604051905090565b600080fd5b600080fd5b600080fd5b6000601f19601f8301169050919050565b7f4e487b7100000000000000000000000000000000000000000000000000000000600052604160045260246000fd5b61028082610237565b810181811067ffffffffffffffff8211171561029f5761029e610248565b5b80604052505050565b60006102b261021e565b90506102be8282610277565b919050565b600067ffffffffffffffff8211156102de576102dd610248565b5b602082029050602081019050919050565b600080fd5b600073ffffffffffffffffffffffffffffffffffffffff82169050919050565b600061031f826102f4565b9050919050565b61032f81610314565b811461033a57600080fd5b50565b60008151905061034c81610326565b92915050565b6000610365610360846102c3565b6102a8565b90508083825260208201905060208402830185811115610388576103876102ef565b5b835b818110156103b1578061039d888261033d565b84526020840193505060208101905061038a565b5050509392505050565b600082601f8301126103d0576103cf610232565b5b81516103e0848260208601610352565b91505092915050565b6000819050919050565b6103fc816103e9565b811461040757600080fd5b50565b600081519050610419816103f3565b92915050565b6000806040838503121561043657610435610228565b5b600083015167ffffffffffffffff8111156104545761045361022d565b5b610460858286016103bb565b92505060206104718582860161040a565b9150509250929050565b600082825260208201905092915050565b7f44656265732074656e6572206f776e6572730000000000000000000000000000600082015250565b60006104c260128361047b565b91506104cd8261048c565b602082019050919050565b600060208201905081810360008301526104f1816104b5565b9050919050565b7f4e756d65726f20496e76616c69646f206465206170726f626163696f6e657300600082015250565b600061052e601f8361047b565b9150610539826104f8565b602082019050919050565b6000602082019050818103600083015261055d81610521565b9050919050565b7f4e487b7100000000000000000000000000000000000000000000000000000000600052603260045260246000fd5b6110e5806105a26000396000f3fe6080604052600436106100915760003560e01c806399c1aadc1161005957806399c1aadc1461018d5780639ace38c2146101b8578063ab2850da146101f8578063d0e30db014610235578063ee22610b1461023f57610091565b8063025e7c27146100965780631d43b653146100d3578063242232d1146100fc5780632f54bf6e1461012557806383920e9014610162575b600080fd5b3480156100a257600080fd5b506100bd60048036038101906100b89190610a96565b610268565b6040516100ca9190610b04565b60405180910390f35b3480156100df57600080fd5b506100fa60048036038101906100f59190610b4b565b6102a7565b005b34801561010857600080fd5b50610123600480360381019061011e9190610a96565b61041a565b005b34801561013157600080fd5b5061014c60048036038101906101479190610b8b565b610645565b6040516101599190610bd3565b60405180910390f35b34801561016e57600080fd5b50610177610665565b6040516101849190610d1f565b60405180910390f35b34801561019957600080fd5b506101a2610749565b6040516101af9190610d50565b60405180910390f35b3480156101c457600080fd5b506101df60048036038101906101da9190610a96565b61074f565b6040516101ef9493929190610d6b565b60405180910390f35b34801561020457600080fd5b5061021f600480360381019061021a9190610db0565b6107bc565b60405161022c9190610bd3565b60405180910390f35b61023d6107eb565b005b34801561024b57600080fd5b5061026660048036038101906102619190610a96565b61087e565b005b6000818154811061027857600080fd5b906000526020600020016000915054906101000a900473ffffffffffffffffffffffffffffffffffffffff1681565b600260003373ffffffffffffffffffffffffffffffffffffffff1673ffffffffffffffffffffffffffffffffffffffff16815260200190815260200160002060009054906101000a900460ff16610333576040517f08c379a000000000000000000000000000000000000000000000000000000000815260040161032a90610e4d565b60405180910390fd5b600360405180608001604052808473ffffffffffffffffffffffffffffffffffffffff1681526020018381526020016000815260200160001515815250908060018154018082558091505060019003906000526020600020906004020160009091909190915060008201518160000160006101000a81548173ffffffffffffffffffffffffffffffffffffffff021916908373ffffffffffffffffffffffffffffffffffffffff160217905550602082015181600101556040820151816002015560608201518160030160006101000a81548160ff02191690831515021790555050505050565b600260003373ffffffffffffffffffffffffffffffffffffffff1673ffffffffffffffffffffffffffffffffffffffff16815260200190815260200160002060009054906101000a900460ff166104a6576040517f08c379a000000000000000000000000000000000000000000000000000000000815260040161049d90610e4d565b60405180910390fd5b6000600382815481106104bc576104bb610e6d565b5b906000526020600020906004020190508060030160009054906101000a900460ff161561051e576040517f08c379a000000000000000000000000000000000000000000000000000000000815260040161051590610ee8565b60405180910390fd5b6004600083815260200190815260200160002060003373ffffffffffffffffffffffffffffffffffffffff1673ffffffffffffffffffffffffffffffffffffffff16815260200190815260200160002060009054906101000a900460ff16156105bc576040517f08c379a00000000000000000000000000000000000000000000000000000000081526004016105b390610f54565b60405180910390fd5b60016004600084815260200190815260200160002060003373ffffffffffffffffffffffffffffffffffffffff1673ffffffffffffffffffffffffffffffffffffffff16815260200190815260200160002060006101000a81548160ff021916908315150217905550600181600201600082825461063a9190610fa3565b925050819055505050565b60026020528060005260406000206000915054906101000a900460ff1681565b60606003805480602002602001604051908101604052809291908181526020016000905b8282101561074057838290600052602060002090600402016040518060800160405290816000820160009054906101000a900473ffffffffffffffffffffffffffffffffffffffff1673ffffffffffffffffffffffffffffffffffffffff1673ffffffffffffffffffffffffffffffffffffffff16815260200160018201548152602001600282015481526020016003820160009054906101000a900460ff16151515158152505081526020019060010190610689565b50505050905090565b60015481565b6003818154811061075f57600080fd5b90600052602060002090600402016000915090508060000160009054906101000a900473ffffffffffffffffffffffffffffffffffffffff16908060010154908060020154908060030160009054906101000a900460ff16905084565b60046020528160005260406000206020528060005260406000206000915091509054906101000a900460ff1681565b6000341161082e576040517f08c379a000000000000000000000000000000000000000000000000000000000815260040161082590611023565b60405180910390fd5b3373ffffffffffffffffffffffffffffffffffffffff167fe1fffcc4923d04b559f4d29a8bfc6cda04eb5b0d3c460751c2402c5c5cc9109c346040516108749190610d50565b60405180910390a2565b600260003373ffffffffffffffffffffffffffffffffffffffff1673ffffffffffffffffffffffffffffffffffffffff16815260200190815260200160002060009054906101000a900460ff1661090a576040517f08c379a000000000000000000000000000000000000000000000000000000000815260040161090190610e4d565b60405180910390fd5b6000600382815481106109205761091f610e6d565b5b9060005260206000209060040201905060015481600201541015610979576040517f08c379a00000000000000000000000000000000000000000000000000000000081526004016109709061108f565b60405180910390fd5b8060030160009054906101000a900460ff16156109cb576040517f08c379a00000000000000000000000000000000000000000000000000000000081526004016109c290610ee8565b60405180910390fd5b60018160030160006101000a81548160ff0219169083151502179055508060000160009054906101000a900473ffffffffffffffffffffffffffffffffffffffff1673ffffffffffffffffffffffffffffffffffffffff166108fc82600101549081150290604051600060405180830381858888f19350505050158015610a56573d6000803e3d6000fd5b505050565b600080fd5b6000819050919050565b610a7381610a60565b8114610a7e57600080fd5b50565b600081359050610a9081610a6a565b92915050565b600060208284031215610aac57610aab610a5b565b5b6000610aba84828501610a81565b91505092915050565b600073ffffffffffffffffffffffffffffffffffffffff82169050919050565b6000610aee82610ac3565b9050919050565b610afe81610ae3565b82525050565b6000602082019050610b196000830184610af5565b92915050565b610b2881610ae3565b8114610b3357600080fd5b50565b600081359050610b4581610b1f565b92915050565b60008060408385031215610b6257610b61610a5b565b5b6000610b7085828601610b36565b9250506020610b8185828601610a81565b9150509250929050565b600060208284031215610ba157610ba0610a5b565b5b6000610baf84828501610b36565b91505092915050565b60008115159050919050565b610bcd81610bb8565b82525050565b6000602082019050610be86000830184610bc4565b92915050565b600081519050919050565b600082825260208201905092915050565b6000819050602082019050919050565b610c2381610ae3565b82525050565b610c3281610a60565b82525050565b610c4181610bb8565b82525050565b608082016000820151610c5d6000850182610c1a565b506020820151610c706020850182610c29565b506040820151610c836040850182610c29565b506060820151610c966060850182610c38565b50505050565b6000610ca88383610c47565b60808301905092915050565b6000602082019050919050565b6000610ccc82610bee565b610cd68185610bf9565b9350610ce183610c0a565b8060005b83811015610d12578151610cf98882610c9c565b9750610d0483610cb4565b925050600181019050610ce5565b5085935050505092915050565b60006020820190508181036000830152610d398184610cc1565b905092915050565b610d4a81610a60565b82525050565b6000602082019050610d656000830184610d41565b92915050565b6000608082019050610d806000830187610af5565b610d8d6020830186610d41565b610d9a6040830185610d41565b610da76060830184610bc4565b95945050505050565b60008060408385031215610dc757610dc6610a5b565b5b6000610dd585828601610a81565b9250506020610de685828601610b36565b9150509250929050565b600082825260208201905092915050565b7f4e6f20657320756e204f776e6572000000000000000000000000000000000000600082015250565b6000610e37600e83610df0565b9150610e4282610e01565b602082019050919050565b60006020820190508181036000830152610e6681610e2a565b9050919050565b7f4e487b7100000000000000000000000000000000000000000000000000000000600052603260045260246000fd5b7f5472616e73616363696f6e20796120656a656375746164610000000000000000600082015250565b6000610ed2601883610df0565b9150610edd82610e9c565b602082019050919050565b60006020820190508181036000830152610f0181610ec5565b9050919050565b7f5961206170726f62616461000000000000000000000000000000000000000000600082015250565b6000610f3e600b83610df0565b9150610f4982610f08565b602082019050919050565b60006020820190508181036000830152610f6d81610f31565b9050919050565b7f4e487b7100000000000000000000000000000000000000000000000000000000600052601160045260246000fd5b6000610fae82610a60565b9150610fb983610a60565b9250828201905080821115610fd157610fd0610f74565b5b92915050565b7f4465626573206d616e6461722045746865720000000000000000000000000000600082015250565b600061100d601283610df0565b915061101882610fd7565b602082019050919050565b6000602082019050818103600083015261103c81611000565b9050919050565b7f4e6f20737566696369656e746573206170726f626163696f6e65730000000000600082015250565b6000611079601b83610df0565b915061108482611043565b602082019050919050565b600060208201905081810360008301526110a88161106c565b905091905056fea264697066735822122076ec51da93e247b021a3af3f74aff73b583c01e08e001dfbb45b6e751df8545f64736f6c634300081b0033",
  "linkReferences": {},
  "deployedLinkReferences": {}
}